{
  "contractName": "Tutoring",
  "abi": [
    {
      "inputs": [],
      "payable": false,
      "stateMutability": "nonpayable",
      "type": "constructor"
    },
    {
      "constant": true,
      "inputs": [],
      "name": "name",
      "outputs": [
        {
          "internalType": "string",
          "name": "",
          "type": "string"
        }
      ],
      "payable": false,
      "stateMutability": "view",
      "type": "function"
    },
    {
      "constant": true,
      "inputs": [],
      "name": "owner",
      "outputs": [
        {
          "internalType": "address",
          "name": "",
          "type": "address"
        }
      ],
      "payable": false,
      "stateMutability": "view",
      "type": "function"
    },
    {
      "constant": true,
      "inputs": [],
      "name": "problemCount",
      "outputs": [
        {
          "internalType": "uint256",
          "name": "",
          "type": "uint256"
        }
      ],
      "payable": false,
      "stateMutability": "view",
      "type": "function"
    },
    {
      "constant": true,
      "inputs": [
        {
          "internalType": "uint256",
          "name": "",
          "type": "uint256"
        }
      ],
      "name": "problemList",
      "outputs": [
        {
          "internalType": "uint256",
          "name": "key",
          "type": "uint256"
        },
        {
          "internalType": "enum Tutoring.Category",
          "name": "category",
          "type": "uint8"
        },
        {
          "internalType": "string",
          "name": "description",
          "type": "string"
        },
        {
          "internalType": "string",
          "name": "descriptionHash",
          "type": "string"
        },
        {
          "internalType": "string",
          "name": "solution",
          "type": "string"
        },
        {
          "internalType": "string",
          "name": "solutionHash",
          "type": "string"
        },
        {
          "internalType": "address",
          "name": "createdBy",
          "type": "address"
        },
        {
          "internalType": "address",
          "name": "assignedTo",
          "type": "address"
        },
        {
          "internalType": "enum Tutoring.ProblemState",
          "name": "state",
          "type": "uint8"
        },
        {
          "internalType": "string",
          "name": "rejectionReason",
          "type": "string"
        }
      ],
      "payable": false,
      "stateMutability": "view",
      "type": "function"
    },
    {
      "constant": false,
      "inputs": [
        {
          "internalType": "enum Tutoring.Category",
          "name": "_category",
          "type": "uint8"
        },
        {
          "internalType": "string",
          "name": "_description",
          "type": "string"
        },
        {
          "internalType": "string",
          "name": "_descriptionHash",
          "type": "string"
        }
      ],
      "name": "createProblem",
      "outputs": [],
      "payable": false,
      "stateMutability": "nonpayable",
      "type": "function"
    },
    {
      "constant": false,
      "inputs": [
        {
          "internalType": "uint256",
          "name": "key",
          "type": "uint256"
        }
      ],
      "name": "assignProblem",
      "outputs": [],
      "payable": false,
      "stateMutability": "nonpayable",
      "type": "function"
    },
    {
      "constant": false,
      "inputs": [
        {
          "internalType": "uint256",
          "name": "key",
          "type": "uint256"
        },
        {
          "internalType": "string",
          "name": "_solution",
          "type": "string"
        },
        {
          "internalType": "string",
          "name": "_solutionHash",
          "type": "string"
        }
      ],
      "name": "resolveProblem",
      "outputs": [],
      "payable": false,
      "stateMutability": "nonpayable",
      "type": "function"
    },
    {
      "constant": false,
      "inputs": [
        {
          "internalType": "uint256",
          "name": "key",
          "type": "uint256"
        }
      ],
      "name": "approveSolution",
      "outputs": [],
      "payable": false,
      "stateMutability": "nonpayable",
      "type": "function"
    },
    {
      "constant": false,
      "inputs": [
        {
          "internalType": "uint256",
          "name": "key",
          "type": "uint256"
        },
        {
          "internalType": "string",
          "name": "_rejectionReason",
          "type": "string"
        }
      ],
      "name": "rejectSolution",
      "outputs": [],
      "payable": false,
      "stateMutability": "nonpayable",
      "type": "function"
    }
  ],
  "bytecode": "0x60806040526040518060400160405280600881526020017f5475746f72696e670000000000000000000000000000000000000000000000008152506000908051906020019062000051929190620000ac565b5060006002553480156200006457600080fd5b5033600160006101000a81548173ffffffffffffffffffffffffffffffffffffffff021916908373ffffffffffffffffffffffffffffffffffffffff1602179055506200015b565b828054600181600116156101000203166002900490600052602060002090601f016020900481019282601f10620000ef57805160ff191683800117855562000120565b8280016001018555821562000120579182015b828111156200011f57825182559160200191906001019062000102565b5b5090506200012f919062000133565b5090565b6200015891905b80821115620001545760008160009055506001016200013a565b5090565b90565b611803806200016b6000396000f3fe608060405234801561001057600080fd5b50600436106100935760003560e01c80638da5cb5b116100665780638da5cb5b146105965780639115e71b146105e05780639846f8e2146105fe5780639c1b97991461062c578063df9fc897146106f157610093565b806306fdde031461009857806316a465221461011b5780637473085f1461027a578063883256bd146102a8575b600080fd5b6100a061084d565b6040518080602001828103825283818151815260200191508051906020019080838360005b838110156100e05780820151818401526020810190506100c5565b50505050905090810190601f16801561010d5780820380516001836020036101000a031916815260200191505b509250505060405180910390f35b6102786004803603606081101561013157600080fd5b81019080803560ff1690602001909291908035906020019064010000000081111561015b57600080fd5b82018360208201111561016d57600080fd5b8035906020019184600183028401116401000000008311171561018f57600080fd5b91908080601f016020809104026020016040519081016040528093929190818152602001838380828437600081840152601f19601f820116905080830192505050505050509192919290803590602001906401000000008111156101f257600080fd5b82018360208201111561020457600080fd5b8035906020019184600183028401116401000000008311171561022657600080fd5b91908080601f016020809104026020016040519081016040528093929190818152602001838380828437600081840152601f19601f8201169050808301925050505050505091929192905050506108eb565b005b6102a66004803603602081101561029057600080fd5b8101908080359060200190929190505050610b50565b005b6102d4600480360360208110156102be57600080fd5b8101908080359060200190929190505050610cfd565b604051808b81526020018a60048111156102ea57fe5b60ff168152602001806020018060200180602001806020018973ffffffffffffffffffffffffffffffffffffffff1673ffffffffffffffffffffffffffffffffffffffff1681526020018873ffffffffffffffffffffffffffffffffffffffff1673ffffffffffffffffffffffffffffffffffffffff16815260200187600381111561037257fe5b60ff1681526020018060200186810386528e818151815260200191508051906020019080838360005b838110156103b657808201518184015260208101905061039b565b50505050905090810190601f1680156103e35780820380516001836020036101000a031916815260200191505b5086810385528d818151815260200191508051906020019080838360005b8381101561041c578082015181840152602081019050610401565b50505050905090810190601f1680156104495780820380516001836020036101000a031916815260200191505b5086810384528c818151815260200191508051906020019080838360005b83811015610482578082015181840152602081019050610467565b50505050905090810190601f1680156104af5780820380516001836020036101000a031916815260200191505b5086810383528b818151815260200191508051906020019080838360005b838110156104e85780820151818401526020810190506104cd565b50505050905090810190601f1680156105155780820380516001836020036101000a031916815260200191505b50868103825287818151815260200191508051906020019080838360005b8381101561054e578082015181840152602081019050610533565b50505050905090810190601f16801561057b5780820380516001836020036101000a031916815260200191505b509f5050505050505050505050505050505060405180910390f35b61059e6110a3565b604051808273ffffffffffffffffffffffffffffffffffffffff1673ffffffffffffffffffffffffffffffffffffffff16815260200191505060405180910390f35b6105e86110c9565b6040518082815260200191505060405180910390f35b61062a6004803603602081101561061457600080fd5b81019080803590602001909291905050506110cf565b005b6106ef6004803603604081101561064257600080fd5b81019080803590602001909291908035906020019064010000000081111561066957600080fd5b82018360208201111561067b57600080fd5b8035906020019184600183028401116401000000008311171561069d57600080fd5b91908080601f016020809104026020016040519081016040528093929190818152602001838380828437600081840152601f19601f820116905080830192505050505050509192919290505050611255565b005b61084b6004803603606081101561070757600080fd5b81019080803590602001909291908035906020019064010000000081111561072e57600080fd5b82018360208201111561074057600080fd5b8035906020019184600183028401116401000000008311171561076257600080fd5b91908080601f016020809104026020016040519081016040528093929190818152602001838380828437600081840152601f19601f820116905080830192505050505050509192919290803590602001906401000000008111156107c557600080fd5b8201836020820111156107d757600080fd5b803590602001918460018302840111640100000000831117156107f957600080fd5b91908080601f016020809104026020016040519081016040528093929190818152602001838380828437600081840152601f19601f82011690508083019250505050505050919291929050505061142d565b005b60008054600181600116156101000203166002900480601f0160208091040260200160405190810160405280929190818152602001828054600181600116156101000203166002900480156108e35780601f106108b8576101008083540402835291602001916108e3565b820191906000526020600020905b8154815290600101906020018083116108c657829003601f168201915b505050505081565b604051806101400160405280600254815260200184600481111561090b57fe5b81526020018381526020018281526020016040518060200160405280600081525081526020016040518060200160405280600081525081526020013373ffffffffffffffffffffffffffffffffffffffff168152602001600073ffffffffffffffffffffffffffffffffffffffff1681526020016000600381111561098c57fe5b8152602001604051806020016040528060008152508152506003600060025481526020019081526020016000206000820151816000015560208201518160010160006101000a81548160ff021916908360048111156109e757fe5b02179055506040820151816002019080519060200190610a089291906115d0565b506060820151816003019080519060200190610a259291906115d0565b506080820151816004019080519060200190610a429291906115d0565b5060a0820151816005019080519060200190610a5f9291906115d0565b5060c08201518160060160006101000a81548173ffffffffffffffffffffffffffffffffffffffff021916908373ffffffffffffffffffffffffffffffffffffffff16021790555060e08201518160070160006101000a81548173ffffffffffffffffffffffffffffffffffffffff021916908373ffffffffffffffffffffffffffffffffffffffff1602179055506101008201518160070160146101000a81548160ff02191690836003811115610b1357fe5b0217905550610120820151816008019080519060200190610b359291906115d0565b50905050600260008154809291906001019190505550505050565b600060036000838152602001908152602001600020905060006003811115610b7457fe5b8160070160149054906101000a900460ff166003811115610b9157fe5b14610be7576040517f08c379a00000000000000000000000000000000000000000000000000000000081526004018080602001828103825260278152602001806117796027913960400191505060405180910390fd5b3373ffffffffffffffffffffffffffffffffffffffff168160060160009054906101000a900473ffffffffffffffffffffffffffffffffffffffff1673ffffffffffffffffffffffffffffffffffffffff161415610c90576040517f08c379a00000000000000000000000000000000000000000000000000000000081526004018080602001828103825260338152602001806116f66033913960400191505060405180910390fd5b338160070160006101000a81548173ffffffffffffffffffffffffffffffffffffffff021916908373ffffffffffffffffffffffffffffffffffffffff16021790555060018160070160146101000a81548160ff02191690836003811115610cf457fe5b02179055505050565b60036020528060005260406000206000915090508060000154908060010160009054906101000a900460ff1690806002018054600181600116156101000203166002900480601f016020809104026020016040519081016040528092919081815260200182805460018160011615610100020316600290048015610dc25780601f10610d9757610100808354040283529160200191610dc2565b820191906000526020600020905b815481529060010190602001808311610da557829003601f168201915b505050505090806003018054600181600116156101000203166002900480601f016020809104026020016040519081016040528092919081815260200182805460018160011615610100020316600290048015610e605780601f10610e3557610100808354040283529160200191610e60565b820191906000526020600020905b815481529060010190602001808311610e4357829003601f168201915b505050505090806004018054600181600116156101000203166002900480601f016020809104026020016040519081016040528092919081815260200182805460018160011615610100020316600290048015610efe5780601f10610ed357610100808354040283529160200191610efe565b820191906000526020600020905b815481529060010190602001808311610ee157829003601f168201915b505050505090806005018054600181600116156101000203166002900480601f016020809104026020016040519081016040528092919081815260200182805460018160011615610100020316600290048015610f9c5780601f10610f7157610100808354040283529160200191610f9c565b820191906000526020600020905b815481529060010190602001808311610f7f57829003601f168201915b5050505050908060060160009054906101000a900473ffffffffffffffffffffffffffffffffffffffff16908060070160009054906101000a900473ffffffffffffffffffffffffffffffffffffffff16908060070160149054906101000a900460ff1690806008018054600181600116156101000203166002900480601f0160208091040260200160405190810160405280929190818152602001828054600181600116156101000203166002900480156110995780601f1061106e57610100808354040283529160200191611099565b820191906000526020600020905b81548152906001019060200180831161107c57829003601f168201915b505050505090508a565b600160009054906101000a900473ffffffffffffffffffffffffffffffffffffffff1681565b60025481565b6000600360008381526020019081526020016000209050600260038111156110f357fe5b8160070160149054906101000a900460ff16600381111561111057fe5b14611166576040517f08c379a000000000000000000000000000000000000000000000000000000000815260040180806020018281038252602f8152602001806117a0602f913960400191505060405180910390fd5b3373ffffffffffffffffffffffffffffffffffffffff168160060160009054906101000a900473ffffffffffffffffffffffffffffffffffffffff1673ffffffffffffffffffffffffffffffffffffffff161461122b576040517f08c379a00000000000000000000000000000000000000000000000000000000081526004018080602001828103825260128152602001807f5065726d697373696f6e2044656e69656421000000000000000000000000000081525060200191505060405180910390fd5b60038160070160146101000a81548160ff0219169083600381111561124c57fe5b02179055505050565b60006003600084815260200190815260200160002090506002600381111561127957fe5b8160070160149054906101000a900460ff16600381111561129657fe5b146112ec576040517f08c379a000000000000000000000000000000000000000000000000000000000815260040180806020018281038252602f8152602001806117a0602f913960400191505060405180910390fd5b6040518060200160405280600081525051825111611355576040517f08c379a00000000000000000000000000000000000000000000000000000000081526004018080602001828103825260228152602001806117296022913960400191505060405180910390fd5b8181600801908051906020019061136d929190611650565b5060008160070160146101000a81548160ff0219169083600381111561138f57fe5b021790555060008160070160006101000a81548173ffffffffffffffffffffffffffffffffffffffff021916908373ffffffffffffffffffffffffffffffffffffffff160217905550604051806020016040528060008152508160040190805190602001906113ff929190611650565b5060405180602001604052806000815250816005019080519060200190611427929190611650565b50505050565b60006003600085815260200190815260200160002090506001600381111561145157fe5b8160070160149054906101000a900460ff16600381111561146e57fe5b146114c4576040517f08c379a000000000000000000000000000000000000000000000000000000000815260040180806020018281038252602e81526020018061174b602e913960400191505060405180910390fd5b604051806020016040528060008152505183511161154a576040517f08c379a000000000000000000000000000000000000000000000000000000000815260040180806020018281038252601b8152602001807f536f6c7574696f6e206d757374206e6f7420626520656d70747921000000000081525060200191505060405180910390fd5b82816004019080519060200190611562929190611650565b508181600501908051906020019061157b929190611650565b5060028160070160146101000a81548160ff0219169083600381111561159d57fe5b0217905550604051806020016040528060008152508160080190805190602001906115c9929190611650565b5050505050565b828054600181600116156101000203166002900490600052602060002090601f016020900481019282601f1061161157805160ff191683800117855561163f565b8280016001018555821561163f579182015b8281111561163e578251825591602001919060010190611623565b5b50905061164c91906116d0565b5090565b828054600181600116156101000203166002900490600052602060002090601f016020900481019282601f1061169157805160ff19168380011785556116bf565b828001600101855582156116bf579182015b828111156116be5782518255916020019190600101906116a3565b5b5090506116cc91906116d0565b5090565b6116f291905b808211156116ee5760008160009055506001016116d6565b5090565b9056fe596f752063616e6e6f7420736f6c766520796f7572206f776e2069737375657321204c657420736f6d656f6e6520656c73652152656a656374696f6e20726561736f6e206d757374206e6f7420626520656d70747950726f626c656d206d75737420626520696e20496e2070726f677265737320737461746520746f2061737369676e50726f626c656d206d75737420626520696e204f70656e20737461746520746f2061737369676e50726f626c656d206d75737420626520696e2070656e64696e672076616c69646174696f6e20746f2072656a656374a265627a7a72315820932facbc886685794c9ab8292ea848f6d13cf6100de81c76a3b08ecbd6d6581964736f6c63430005100032",
  "source": "pragma solidity ^0.5.0;\r\n\r\ncontract Tutoring {\r\n    string public name = \"Tutoring\";\r\n    address public owner;\r\n\r\n    uint public problemCount = 0;\r\n    mapping(uint => Problem) public problemList;\r\n\r\n    enum ProblemState {Open, InProgress, PendingValidation, Resolved}\r\n\r\n    enum Category {Math, Physics, Chemistry, Geography, History}\r\n\r\n    struct Problem {\r\n        uint key;\r\n        Category category;\r\n        string description;\r\n        string descriptionHash;\r\n        string solution;\r\n        string solutionHash;\r\n        address createdBy;\r\n        address assignedTo;\r\n        ProblemState state;\r\n        string rejectionReason;\r\n    }\r\n\r\n\r\n    constructor() public {\r\n        owner = msg.sender;\r\n    }\r\n\r\n    function createProblem(Category _category, string memory _description, string memory _descriptionHash) public {\r\n        problemList[problemCount] = Problem(\r\n            problemCount,\r\n            _category,\r\n            _description,\r\n            _descriptionHash,\r\n            \"\",\r\n            \"\",\r\n            msg.sender,\r\n            address(0x00),\r\n            ProblemState.Open,\r\n            \"\"\r\n        );\r\n\r\n        problemCount ++;\r\n    }\r\n\r\n    function assignProblem(uint key) public {\r\n        Problem storage problem = problemList[key];\r\n\r\n        require(problem.state == ProblemState.Open, \"Problem must be in Open state to assign\");\r\n        require(problem.createdBy != msg.sender, \"You cannot solve your own issues! Let someone else!\");\r\n\r\n        problem.assignedTo = msg.sender;\r\n        problem.state = ProblemState.InProgress;\r\n    }\r\n\r\n    function resolveProblem(uint key, string memory _solution, string memory _solutionHash) public {\r\n        Problem storage problem = problemList[key];\r\n\r\n        require(problem.state == ProblemState.InProgress, \"Problem must be in In progress state to assign\");\r\n        require((bytes(_solution)).length > bytes(\"\").length, \"Solution must not be empty!\");\r\n\r\n        problem.solution = _solution;\r\n        problem.solutionHash = _solutionHash;\r\n        problem.state = ProblemState.PendingValidation;\r\n        problem.rejectionReason = \"\";\r\n    }\r\n\r\n    function approveSolution(uint key) public {\r\n        Problem storage problem = problemList[key];\r\n\r\n        require(problem.state == ProblemState.PendingValidation, \"Problem must be in pending validation to reject\");\r\n        require(problem.createdBy == msg.sender, \"Permission Denied!\");\r\n\r\n        problem.state = ProblemState.Resolved;\r\n    }\r\n\r\n    function rejectSolution(uint key, string memory _rejectionReason) public {\r\n        Problem storage problem = problemList[key];\r\n\r\n        require(problem.state == ProblemState.PendingValidation, \"Problem must be in pending validation to reject\");\r\n        //require(problem.createdBy == msg.sender, \"Permission Denied!\");\r\n        require((bytes(_rejectionReason)).length > bytes(\"\").length, \"Rejection reason must not be empty\");\r\n\r\n        problem.rejectionReason = _rejectionReason;\r\n        problem.state = ProblemState.Open;\r\n        problem.assignedTo = address(0x00);\r\n        problem.solution = \"\";\r\n        problem.solutionHash = \"\";\r\n    }\r\n}\r\n",
  "sourcePath": "C:/Users/GeorgeMunteanu/Desktop/Projects/Hackathon2021/hackathon2021/src/contracts/Tutoring.sol",
  "compiler": {
    "name": "solc",
    "version": "0.5.16+commit.9c3226ce.Emscripten.clang"
  },
  "schemaVersion": "3.3.4",
  "updatedAt": "2021-03-14T04:05:30.351Z",
  "devdoc": {
    "methods": {}
  },
  "userdoc": {
    "methods": {}
  }
}